{
  "contractName": "JGOToken",
  "abi": [
    {
      "constant": true,
      "inputs": [],
      "name": "totalSupply",
      "outputs": [
        {
          "name": "",
          "type": "uint256"
        }
      ],
      "payable": false,
      "stateMutability": "view",
      "type": "function"
    },
    {
      "constant": true,
      "inputs": [
        {
          "name": "",
          "type": "address"
        }
      ],
      "name": "balanceOf",
      "outputs": [
        {
          "name": "",
          "type": "uint256"
        }
      ],
      "payable": false,
      "stateMutability": "view",
      "type": "function"
    },
    {
      "inputs": [
        {
          "name": "_intialSupply",
          "type": "uint256"
        }
      ],
      "payable": false,
      "stateMutability": "nonpayable",
      "type": "constructor"
    }
  ],
  "bytecode": "0x6060604052341561000f57600080fd5b60405160208061018e8339810160405280805190602001909190505080600160003373ffffffffffffffffffffffffffffffffffffffff1673ffffffffffffffffffffffffffffffffffffffff168152602001908152602001600020819055508060008190555050610108806100866000396000f3006060604052600436106049576000357c0100000000000000000000000000000000000000000000000000000000900463ffffffff16806318160ddd14604e57806370a08231146074575b600080fd5b3415605857600080fd5b605e60be565b6040518082815260200191505060405180910390f35b3415607e57600080fd5b60a8600480803573ffffffffffffffffffffffffffffffffffffffff1690602001909190505060c4565b6040518082815260200191505060405180910390f35b60005481565b600160205280600052604060002060009150905054815600a165627a7a7230582037ff9c3bc048fb7dfb45dc3b620ef98b99fafd758bba45435d015c435412038b0029",
  "source": "pragma solidity ^0.4.2;\r\n\r\ncontract JGOToken{\r\n\r\n\tuint256 public totalSupply;\r\n\tmapping(address => uint256) public balanceOf;\r\n\tfunction JGOToken(uint256 _intialSupply) public{\r\n\t\tbalanceOf[msg.sender]=_intialSupply;\r\n\t\ttotalSupply = _intialSupply;\r\n\t\t//allocate the _intialSupply\r\n\t}\r\n\r\n\r\n}",
  "sourcePath": "C:\\Users\\user\\Desktop\\Ethereum\\JGOTOKEN\\contracts\\JGOToken.sol",
  "compiler": {
    "name": "solc",
    "version": "0.4.19+commit.c4cbbb05.Emscripten.clang"
  },
  "schemaVersion": "2.0.0",
  "updatedAt": "2018-04-10T22:40:49.309Z"
}